:020000040800F2
:1000000000800020AD2500082117000827170008F0
:100010002D170008331700083917000800000000EA
:10002000000000000000000000000000F1B3000824
:100030003F17000800000000D1B500084B1700086A
:10004000FD250008FD25000865170008FD250008AE
:10005000FD250008FD250008FD250008FD250008F8
:10006000FD250008FD250008FD250008FD250008E8
:10007000FD250008FD250008FD250008891700085A
:10008000FD250008FD250008FD250008FD250008C8
:1000900000000000FD250008FD250008FD250008E2
:1000A000FD250008FD250008FD250008FD250008A8
:1000B000FD250008FD250008FD250008FD25000898
:1000C000FD250008FD250008FD250008FD25000888
:1000D0009D170008B1170008FD250008ED1700085E
:1000E000FD25000879170008C5170008FD25000840
:1000F000FD2500080000000000000000FD250008AC
:10010000FD250008FD250008D9170008FD25000879
:10011000FD250008FD250008FD250008FD25000837
:10012000FD250008FD250008FD250008FD25000827
:08013000FD250008FD25000873
:1001400010B5054C237833B9044B13B10448AFF311
:1001500000800123237010BD180100200000000062
:1001600060D8010808B5034B1BB103490348AFF33E
:10017000008008BD000000001C01002060D80108BC
:10018000034613F8012B002AFBD1181A01387047D7
:1001900081F0004102E000BF83F0004330B54FEA38
:1001A00041044FEA430594EA050F08BF90EA020FA5
:1001B0001FBF54EA000C55EA020C7FEA645C7FEA38
:1001C000655C00F0E2804FEA5454D4EB5555B8BF5B
:1001D0006D420CDD2C4480EA020281EA030382EACC
:1001E000000083EA010180EA020281EA0303362D5E
:1001F00088BF30BD11F0004F4FEA01314FF4801C31
:100200004CEA113102D0404261EB410113F0004F42
:100210004FEA03334CEA133302D0524263EB4303F9
:1002200094EA050F00F0A780A4F10104D5F1200E97
:100230000DDB02FA0EFC22FA05F2801841F10001F2
:1002400003FA0EF2801843FA05F359410EE0A5F1C6
:1002500020050EF1200E012A03FA0EFC28BF4CF0F7
:10026000020C43FA05F3C01851EBE37101F00045AD
:1002700007D54FF0000EDCF1000C7EEB00006EEBBA
:100280000101B1F5801F1BD3B1F5001F0CD3490844
:100290005FEA30004FEA3C0C04F101044FEA44529B
:1002A00012F5800F80F09A80BCF1004F08BF5FEA22
:1002B000500C50F1000041EB045141EA050130BD02
:1002C0005FEA4C0C404141EB0101013C28BFB1F514
:1002D000801FE9D291F0000F04BF01460020B1FA5F
:1002E00081F308BF2033A3F10B03B3F120020CDA32
:1002F0000C3208DD02F1140CC2F10C0201FA0CF010
:1003000021FA02F10CE002F11402D8BFC2F1200C74
:1003100001FA02F120FA0CFCDCBF41EA0C0190402A
:10032000E41AA2BF01EB0451294330BD6FEA040473
:100330001F3C1CDA0C340EDC04F11404C4F120025E
:1003400020FA04F001FA02F340EA030021FA04F370
:1003500045EA030130BDC4F10C04C4F1200220FAC7
:1003600002F001FA04F340EA0300294630BD21FA05
:1003700004F0294630BD94F0000F83F4801306BFCB
:1003800081F480110134013D4EE77FEA645C18BFBF
:100390007FEA655C29D094EA050F08BF90EA020F56
:1003A00005D054EA000C04BF1946104630BD91EA4E
:1003B000030F1EBF0021002030BD5FEA545C05D151
:1003C0004000494128BF41F0004130BD14F5800490
:1003D0003CBF01F5801130BD01F0004545F0FE4104
:1003E00041F470014FF0000030BD7FEA645C1ABF39
:1003F000194610467FEA655C1CBF0B46024650EA70
:10040000013406BF52EA033591EA030F41F400219B
:1004100030BD00BF90F0000F04BF0021704730B521
:100420004FF4806404F132044FF000054FF00001F6
:1004300050E700BF90F0000F04BF0021704730B5B7
:100440004FF4806404F1320410F0004548BF40428C
:100450004FF000013EE700BF42004FEAE2014FEAE1
:1004600031014FEA02701FBF12F07F4393F07F4FBC
:1004700081F06051704732F07F4208BF704793F0BF
:100480007F4F04BF41F40021704730B54FF46074D2
:1004900001F0004521F000411CE700BF50EA0102D5
:1004A00008BF704730B54FF000050AE050EA01027E
:1004B00008BF704730B511F0004502D5404261EBEE
:1004C00041014FF4806404F132045FEA915C3FF42F
:1004D000D8AE4FF003025FEADC0C18BF03325FEACC
:1004E000DC0C18BF033202EBDC02C2F1200300FA7D
:1004F00003FC20FA02F001FA03FE40EA0E0021FAA2
:1005000002F11444BDE600BF4FF0FF3C06E000BF1F
:100510004FF0010C02E000BF4FF0010C4DF804CD8C
:100520004FEA410C7FEA6C5C4FEA430C18BF7FEA4C
:100530006C5C1BD001B050EA410C0CBF52EA430C7A
:1005400091EA030F02BF90EA020F0020704710F1FA
:10055000000F91EA030F58BF994208BF90422CBF89
:10056000D8176FEAE37040F0010070474FEA410C82
:100570007FEA6C5C02D150EA013C07D14FEA430CA0
:100580007FEA6C5CD6D152EA033CD3D05DF8040B11
:10059000704700BF8446104662468C461946634643
:1005A00000E000BF01B5FFF7B7FF002848BF10F11A
:1005B000000F01BD4DF808EDFFF7F4FF0CBF01205F
:1005C00000205DF808FB00BF4DF808EDFFF7EAFFDB
:1005D00034BF012000205DF808FB00BF4DF808ED96
:1005E000FFF7E0FF94BF012000205DF808FB00BF8B
:1005F0004DF808EDFFF7CEFF94BF012000205DF815
:1006000008FB00BF4DF808EDFFF7C4FF34BF012021
:1006100000205DF808FB00BF4FEA410212F500120E
:1006200015D211D56FF47873B3EB625212D94FEA39
:10063000C12343F0004343EA505311F0004F23FA23
:1006400002F018BF404270474FF00000704750EA78
:10065000013005D111F0004008BF6FF00040704735
:100660004FF00000704700BF80F0004002E000BF84
:1006700081F0004142001FBF5FEA410392EA030F8D
:100680007FEA226C7FEA236C6AD04FEA1262D2EBD7
:100690001363C1BFD218414048404140B8BF5B42DC
:1006A000192B88BF704710F0004F40F4000020F075
:1006B0007F4018BF404211F0004F41F4000121F08B
:1006C0007F4118BF494292EA030F3FD0A2F10102D5
:1006D00041FA03FC10EB0C00C3F1200301FA03F113
:1006E00000F0004302D5494260EB4000B0F5000F36
:1006F00013D3B0F1807F06D340084FEA310102F1F5
:100700000102FE2A51D2B1F1004F40EBC25008BFA6
:1007100020F0010040EA03007047490040EB000070
:10072000013A28BFB0F5000FEDD2B0FA80FCACF171
:10073000080CB2EB0C0200FA0CF0AABF00EBC2509E
:1007400052421843BCBFD0401843704792F0000F8C
:1007500081F4000106BF80F400000132013BB5E7DF
:100760004FEA41037FEA226C18BF7FEA236C21D055
:1007700092EA030F04D092F0000F08BF08467047BA
:1007800090EA010F1CBF0020704712F07F4F04D188
:10079000400028BF40F00040704712F100723CBF9B
:1007A00000F50000704700F0004343F0FE4040F4C5
:1007B000000070477FEA226216BF08467FEA236383
:1007C0000146420206BF5FEA412390EA010F40F46E
:1007D000800070474FF0000304E000BF10F00043BA
:1007E00048BF40425FEA000C08BF704743F09643A1
:1007F00001464FF000001CE050EA010208BF7047BC
:100800004FF000030AE000BF50EA010208BF704742
:1008100011F0004302D5404261EB41015FEA010C57
:1008200002BF84460146002043F0B64308BFA3F14F
:100830008053A3F50003BCFA8CF2083AA3EBC25331
:1008400010DB01FA02FC634400FA02FCC2F1200250
:10085000BCF1004F20FA02F243EB020008BF20F087
:100860000100704702F1200201FA02FCC2F12002ED
:1008700050EA4C0021FA02F243EB020008BF20EAE2
:10088000DC7070474FF0FF0C1CEAD0521EBF1CEA10
:10089000D15392EA0C0F93EA0C0F6FD01A4480EAFE
:1008A000010C400218BF5FEA41211ED04FF00063E7
:1008B00043EA501043EA5111A0FB01310CF0004013
:1008C000B1F5000F3EBF490041EAD3715B0040EA39
:1008D000010062F17F02FD2A1DD8B3F1004F40EB09
:1008E000C25008BF20F00100704790F0000F0CF0DC
:1008F000004C08BF49024CEA502040EA51207F3AA0
:10090000C2BFD2F1FF0340EAC250704740F400007A
:100910004FF00003013A5DDC12F1190FDCBF00F06B
:1009200000407047C2F10002410021FA02F1C2F119
:10093000200200FA02FC5FEA310040F1000053EAB5
:100940004C0308BF20EADC70704792F0000F00F003
:10095000004C02BF400010F4000F013AF9D040EA09
:100960000C0093F0000F01F0004C02BF490011F49D
:10097000000F013BF9D041EA0C018FE70CEAD1539B
:1009800092EA0C0F18BF93EA0C0F0AD030F0004C1B
:1009900018BF31F0004CD8D180EA010000F00040CF
:1009A000704790F0000F17BF90F0004F084691F08D
:1009B000000F91F0004F14D092EA0C0F01D14202C7
:1009C0000FD193EA0C0F03D14B0218BF084608D190
:1009D00080EA010000F0004040F0FE4040F40000DA
:1009E000704740F0FE4040F4400070474FF0FF0C6D
:1009F0001CEAD0521EBF1CEAD15392EA0C0F93EAB4
:100A00000C0F69D0A2EB030280EA010C49024FEA05
:100A1000402037D04FF0805343EA111143EA1013BE
:100A20000CF000408B4238BF5B0042F17D024FF476
:100A3000000C8B4224BF5B1A40EA0C00B3EB510F51
:100A400024BFA3EB510340EA5C00B3EB910F24BF3A
:100A5000A3EB910340EA9C00B3EBD10F24BFA3EBBF
:100A6000D10340EADC001B0118BF5FEA1C1CE0D187
:100A7000FD2A3FF650AF8B4240EBC25008BF20F03A
:100A8000010070470CF0004C4CEA50207F32C2BF8E
:100A9000D2F1FF0340EAC250704740F400004FF02B
:100AA0000003013A37E792F0000F00F0004C02BF5C
:100AB000400010F4000F013AF9D040EA0C0093F026
:100AC000000F01F0004C02BF490011F4000F013B80
:100AD000F9D041EA0C0195E70CEAD15392EA0C0FE8
:100AE00008D142027FF47DAF93EA0C0F7FF470AF20
:100AF000084676E793EA0C0F04D14B023FF44CAF63
:100B000008466EE730F0004C18BF31F0004CCAD1F7
:100B100030F000427FF45CAF31F000437FF43CAF33
:100B20005FE700BF4FEA4002B2F1FE4F0FD34FF034
:100B30009E03B3EB12620DD94FEA002343F000434A
:100B400010F0004F23FA02F018BF404270474FF0F8
:100B50000000704712F1610F01D1420205D110F07F
:100B6000004008BF6FF0004070474FF00000704732
:100B700053B94AB9002908BF00281CBF4FF0FF3104
:100B80004FF0FF3000F074B9ADF1080C6DE904CE00
:100B900000F006F8DDF804E0DDE9022304B0704758
:100BA0002DE9F047089E0D4604468846002B4DD19E
:100BB0008A42944668D9B2FA82F252B101FA02F33B
:100BC000C2F1200120FA01F10CFA02FC41EA03080B
:100BD00094404FEA1C45210CB8FBF5FE1FFA8CF738
:100BE00005FB1E8341EA03430EFB07F199420BD933
:100BF0001CEB03030EF1FF3080F01E81994240F29E
:100C00001B81AEF1020E63445B1AA4B2B3FBF5F094
:100C100005FB103344EA034400FB07F7A7420AD957
:100C20001CEB040400F1FF3380F00881A74240F27E
:100C3000058164440238E41B40EA0E4000211EB1E5
:100C4000D4400023C6E90043BDE8F0878B4208D9B1
:100C5000002E00F0EE800021C6E900050846BDE840
:100C6000F087B3FA83F100294AD1AB4202D3824222
:100C700000F2F980841A65EB030301209846002EE8
:100C8000E2D0C6E90048DFE702B9FFDEB2FA82F23D
:100C9000002A40F09180A1EB0C054FEA1C471FFA97
:100CA0008CFE0121B5FBF7F307FB1350250C45EA39
:100CB00000450EFB03F0A84208D91CEB050503F123
:100CC000FF3802D2A84200F2CB8043462D1AA4B2CC
:100CD000B5FBF7F007FB105544EA05440EFB00FE98
:100CE000A64508D91CEB040400F1FF3502D2A64545
:100CF00000F2BB802846A4EB0E0440EA03409EE7C6
:100D0000C1F120078B4022FA07FC4CEA030C20FAC1
:100D100007F405FA01F31C43FD404FEA1C4900FAB1
:100D200001F3B5FBF9F8200C1FFA8CFE09FB1855EE
:100D300040EA054508FB0EF0A84202FA01F20BD981
:100D40001CEB050508F1FF3A80F08880A84240F2CC
:100D50008580A8F1020865442D1AA4B2B5FBF9F00C
:100D600009FB105544EA054500FB0EFEAE4508D9C7
:100D70001CEB050500F1FF346CD2AE456AD9023890
:100D8000654440EA0840A0FB0294A5EB0E05A5428D
:100D9000C846A64656D353D05EB1B3EB080265EB06
:100DA0000E0505FA07F722FA01F3CD401F43C6E905
:100DB00000750021BDE8F087C2F1200320FA03F19D
:100DC0000CFA02FC25FA03F395400D434FEA1C4749
:100DD0001FFA8CFEB3FBF7F107FB11302B0C43EA33
:100DE000004301FB0EF0984204FA02F408D91CEB10
:100DF000030301F1FF382FD298422DD90239634401
:100E00001B1AADB2B3FBF7F007FB103345EA0345FD
:100E100000FB0EF3AB4208D91CEB050500F1FF38CF
:100E200016D2AB4214D902386544ED1A40EA0141AA
:100E300038E73146304607E78646E5E61846FAE6E3
:100E40004B45A9D2B9EB020864EB0C0E0138A3E7BD
:100E50004046EAE7204694E74146D1E7D0467BE7A3
:100E6000023B654432E7084609E76444023842E73A
:100E7000704700BF80B485B000AF78604FF0B043DA
:100E80001A6E4FF0B0417B6813430B664FF0B043CE
:100E90001A6E7B681340FB60FB6800BF1437BD46C9
:100EA00080BC704780B483B000AF78604FF0B0432F
:100EB0001A6E7B68DB434FF0B04113400B6600BFF6
:100EC0000C37BD4680BC704780B500AF234B244A29
:100ED0001A60224B4FF000425A60204B00229A6069
:100EE0001E4B0022DA601D4B00221A611B4B0422AC
:100EF0005A611A4B00221A76184B00225A76174B69
:100F000000229A76154B0122DA61144B002283F8F5
:100F10002020124B00225A62104B00229A620F4B83
:100F2000002283F82C200D4B4FF480521A630B4B98
:100F300007225A63094B07229A63084B002283F861
:100F40003C20064B0022DA64044801F0B7FE034659
:100F5000002B01D000F0D2FA00BF80BD3401002088
:100F60000024014080B582B000AF78607B681B68C8
:100F7000054A934203D14FF40070FFF77BFF00BF97
:100F80000837BD4680BD00BF0024014080B582B057
:100F900000AF78607B681B68054A934203D14FF429
:100FA0000070FFF77FFF00BF0837BD4680BD00BF60
:100FB0000024014080B400AF034B044A1A6000BF14
:100FC000BD4680BC704700BF3401002000240140B2
:100FD00080B586B002AF0023FB810023BB6000F028
:100FE00071F80346FB80304800F0A0F8B8602F4B42
:100FF0001A882F4B1B889A4226D02C4B1A882C4BD0
:101000001B889A421CD0FB88BA6802FB03F39B083A
:10101000284AA2FB03235B091A46254B1B88D31AD7
:10102000642203FB02F2214B1B881946204B1B88CC
:10103000CB1A92FBF3F39BB21E339BB21BB201E0BF
:1010400047F6FF73FB811CE0FB88BA6803FB02F2E2
:10105000194BA3FB0213D21A52081344DB0A4FF4B4
:101060007A7202FB03F3A3F53923A3F50C63134A49
:1010700082FB03129212DB17D31A9BB21E339BB270
:10108000FB81B7F90E3000930D4B012200210120A6
:101090001BF04AF8B7F90E301B02FB81B7F90E308E
:1010A00018461037BD4680BD001000B0C875FF1F40
:1010B000A875FF1F9F00EE0901011000AD8BDB68D2
:1010C00078D8010880B582B000AF0023FB800023F0
:1010D0003B60134800F02AF838603B68002B02D1CF
:1010E0000023FB8016E00F4B1B884FF6FF729342E4
:1010F0000BD00C4B1B881A4640F6E44303FB02F26C
:101100003B68B2FBF3F3FB8004E0074A3B68B2FBA9
:10111000F3F3FB80FB8818460837BD4680BD00BF4F
:10112000002000B4AA75FF1FD8084C0080B586B017
:1011300000AF786000237B6107F1080300221A608A
:101140005A609A60FFF7C0FE1A4802F09DFB034602
:10115000002B01D000F0D2F97B68BB600023FB605C
:1011600000233B6107F108031946124802F004F915
:101170000346002B01D000F0C1F90E4801F0E0FF5A
:101180000346002B01D000F0B9F94FF0FF310948B8
:1011900002F04EF8074802F019F8064802F0DFF8AE
:1011A0007861044801F050FF7B6918461837BD4646
:1011B00080BD00BF3401002080B582B000AF7860F0
:1011C0007B681B684FF4FA4202FB03F3074AA2FB59
:1011D00003239B091946064803F0A4FC01210020C3
:1011E00004F038F800BF0837BD4680BDD34D62100B
:1011F000EC09002080B582B000AF7860044803F0AD
:1012000033FD00F09DF800BF0837BD4680BD00BF2C
:10121000EC09002080B485B000AFF860B9607A6056
:10122000FB68074A1A60BB68064A1A607B684FF47D
:1012300000721A6000BF1437BD4680BC704700BF03
:1012400098010020EC01002080B485B000AF7860E8
:101250004FF0B0439A6C4FF0B0417B6813438B64FE
:101260004FF0B0439A6C7B681340FB60FB6800BF93
:101270001437BD4680BC704780B500AF0420FFF72F
:10128000E3FF0120FFF7E0FF002202210F2002F020
:101290004EFC0F2002F065FC00BF80BD80B483B01F
:1012A00000AF78604FF0B043D3F8903023F01802CD
:1012B0004FF0B0417B681343C1F8903000BF0C374A
:1012C000BD4680BC704780B485B000AF78604FF0F9
:1012D000B043DA6C4FF0B0417B681343CB644FF0FE
:1012E000B043DA6C7B681340FB60FB6800BF1437C7
:1012F000BD4680BC70470000B0B588B000AF01F0BB
:1013000023FB00F01DF800F0A5F800F077F80A4B79
:101310003C1D1D460FCD0FC495E8070084E807006B
:101320003B1D0021184609F005F90346034A1360E6
:1013300009F0F9F8FEE700BF94D80108300A002050
:1013400080B59AB000AF07F120034822002118466B
:101350001CF0FEF907F1080300221A605A609A6037
:10136000DA601A615A6103F067FF0020FFF796FF09
:10137000214B1B6823F4C0631F4A43F400731360BE
:101380001D4B1B6803F4C0637B607B682C233B62AE
:101390008123FB6201233B6400237B64B023BB6495
:1013A0000023FB630123BB630023FB6407F12003DD
:1013B000184604F063FA0346002B01D000F09EF8B3
:1013C0004F23BB600023FB6000233B6100237B6154
:1013D0000023BB610023FB6107F1080302211846CB
:1013E00004F0E8FD0346002B01D000F087F800BFB1
:1013F0006837BD4680BD00BF0004005880B500AF0F
:10140000124B134A1A60114B00225A600F4B0022F4
:101410009A600E4B4FF6FF725A610C4B00221A6213
:101420000A4B00225A62094B00229A62074B0022A3
:10143000DA62064B00221A63044803F0ABFA034653
:10144000002B01D000F05AF800BF80BDEC0900204D
:10145000007C004080B586B000AF3B1D00221A60C2
:101460005A609A60DA601A610220FFF72CFF0120AF
:10147000FFF729FF00222021194803F0EAF9002292
:101480004FF48061164803F0E4F9002201214FF087
:10149000904003F0DEF920237B600123BB60002332
:1014A000FB6000233B613B1D19460D4802F08CFF99
:1014B0004FF480637B600123BB600023FB6000234B
:1014C0003B613B1D1946064802F07EFF01224FF4A6
:1014D0008061034803F0BDF900BF1837BD4680BDE9
:1014E0000004004880B582B000AF786008F038FD95
:1014F00008F03EFD0A2009F069F8F9E780B400AF72
:1015000072B600BFFEE780B400AF4FF0B043D3F82F
:1015100090304FF0B04243F40043C2F8903000BF27
:10152000BD4680BC704780B485B000AF78604FF096
:10153000B0439A6D4FF0B0417B6813438B654FF019
:10154000B0439A6D7B681340FB60FB6800BF1437A3
:10155000BD4680BC7047000080B58CB000AF3B1D1D
:101560002C22002118461CF0F3F8224B224A1A6064
:10157000204B1F229A601F4B00221A611D4B002234
:101580005A611C4B00229A611A4B4FF08042DA617B
:10159000184B00221A62174B4FF480725A6215489A
:1015A00005F0C4F90346002B01D0FFF7A7FF11484F
:1015B00005F0B2FC0346002B01D0FFF79FFF00238C
:1015C0003B620023BB600023BB614FF00053FB6113
:1015D0004FF48073FB623B1D00221946054805F05D
:1015E0001FFA0346002B01D0FFF788FF00BF3037FA
:1015F000BD4680BD340A00200028004080B590B070
:1016000000AF786007F108033822002118461CF06B
:101610009FF87B681B68164A934225D14FF48033AC
:10162000BB604FF48073FB6307F10803184605F0B5
:1016300063F80346002B01D0FFF760FFFFF763FF5D
:101640004FF48060FFF76FFF00220021022002F0BC
:101650006EFA022002F085FA002200212A2002F010
:1016600066FA2A2002F07DFA00BF4037BD4680BDF1
:101670000028004080B485B000AF78604FF0B043E0
:101680009A6D4FF0B0417B6813438B654FF0B043C8
:101690009A6D7B681340FB60FB6800BF1437BD4642
:1016A00080BC704780B500AF00220F216FF00100B1
:1016B00002F03DFA00BF80BD80B590B000AF786009
:1016C00007F108033822002118461CF041F87B6816
:1016D0001B68114A93421AD14FF40073BB600F4B41
:1016E000BB6207F10803184605F006F80346002B15
:1016F00001D0FFF703FF4FF00040FFF7BBFF0022D0
:101700000521272002F013FA272002F02AFA00BF51
:101710004037BD4680BD00BF007C004004000C0087
:1017200080B400AFFEE780B400AFFEE780B400AF46
:10173000FEE780B400AFFEE780B400AFFEE780B400
:1017400000AF00BFBD4680BC704780B500AF01F060
:101750001BF909F06DFD0346012B01D009F05CFF78
:1017600000BF80BD80B500AF024805F011FC00BF8E
:1017700080BD00BF340A002080B500AF4FF4005098
:1017800003F07EF800BF80BD80B500AF024802F0D4
:101790007FFC00BF80BD00BF100B002080B500AFF4
:1017A000024806F055FA00BF80BD00BF800A002045
:1017B00080B500AF024806F04BFA00BF80BD00BF05
:1017C000700B002080B500AF024805F091FA00BF11
:1017D00080BD00BF340A002080B500AF024805F08C
:1017E0003FFF00BF80BD00BF6C0A002080B500AF86
:1017F000024803F09FFA00BF80BD00BFEC09002043
:1018000080B485B000AF78604FF0B0435A6E4FF0AF
:10181000B0417B6813434B664FF0B0435A6E7B6810
:101820001340FB60FB6800BF1437BD4680BC7047A7
:1018300080B500AF064B08221A60054805F094FCFD
:101840000346002B01D0FFF759FE00BF80BD00BF4B
:101850006C0A002080B582B000AF78600120FFF7ED
:10186000CFFF00220021322002F061F9322002F085
:1018700078F900BF0837BD4680BD80B483B000AFA3
:1018800078604FF0B0439B6823F400424FF0B041C2
:101890007B6813438B6000BF0C37BD4680BC70472C
:1018A00080B400AF024B1B681846BD4680BC704731
:1018B0008075FF1F80B400AF034B1B68DBB2184676
:1018C000BD4680BC704700BF8475FF1F80B400AF69
:1018D000034B1B681B0A1846BD4680BC704700BFFF
:1018E0008475FF1F80B500AF0020FFF7C6FF1BF017
:1018F00011FA00F064F91AF0E9FB09481AF094FCB7
:1019000002201AF09FFCFFF755FB00F05EF91AF079
:1019100083FE012101201AF0BFFE00BF80BD00BF81
:10192000F91A000880B400AF00BFBD4680BC704704
:1019300080B584B002AF0023FB71FFF7C3FB034601
:10194000BB80BB8840F6B832934202D9FE23FB71BC
:1019500014E0BB88B3F5E16F02D20023FB710DE008
:10196000BB88A3F5E1631A461346DB019B1A5B00B3
:101970001A46094BA3FB0223DB09FB71FB79009399
:10198000064B0122002102201AF0CEFBFB791846FB
:101990000837BD4680BD00BFB5814E1BB0D80108D9
:1019A00080B582B000AF0023FB80FFF711FB034638
:1019B000002B00DAFF331B121BB2FB80FB8818469A
:1019C0000837BD4680BD90B587B000AF7860002372
:1019D0007B61FFF765FF78617B69B3F1FF3F38D129
:1019E00000F0E4FF044600F0F5FF034623443B61AA
:1019F00000F0E6FFF8603B691A0E7B680733D2B24D
:101A00001A703B691A0C7B680633D2B21A703B69B4
:101A10001A0A7B680533D2B21A707B6804333A69BC
:101A2000D2B21A70FB681A0E7B680333D2B21A70F6
:101A3000FB681A0C7B680233D2B21A70FB681A0A70
:101A40007B680133D2B21A70FB68DAB27B681A7015
:101A500031E07B6807337A69D2B21A707B691A0A5F
:101A60007B680633D2B21A707B691A0C7B68053327
:101A7000D2B21A707B691A0E7B680433D2B21A7024
:101A8000FFF718FF78617B6803337A69D2B21A7066
:101A9000FFF71CFF78617B6802337A69D2B21A7053
:101AA0007B691A0A7B680133D2B21A707B691B0CFE
:101AB000DAB27B681A7000BF1C37BD4690BD90B586
:101AC00083B000AF00237B60FFF7EAFE78607B689D
:101AD000B3F1FF3F0BD100F069FF044600F070FF47
:101AE00003465C4000F076FF034663407B607B6802
:101AF00018460C37BD4690BD80B586B002AF786001
:101B0000396007F1080318461BF046F8BB68B7F9BF
:101B10000C200092074A1021786800F01DF87868C0
:101B2000FEF72EFB03469AB23B681A8000BF1037BF
:101B3000BD4680BDBCD8010880B500AF01210220A0
:101B40001AF07AFD00BF80BD80B500AF00210220F1
:101B50001AF072FD00BF80BD0CB480B584B000AF38
:101B60007860396007F11C03FB603968FB68BA696B
:101B700078681BF073FC00BF1037BD46BDE880409D
:101B800002B0704780B483B000AF7860002318467D
:101B90000C37BD4680BC704780B500AF00F0DEF862
:101BA0000346184680BD80B582B000AF78607B6880
:101BB000184600F05AF900BF0837BD4680BD80B412
:101BC00000AF00BFBD4680BC704780B400AF0023AB
:101BD0001846BD4680BC704780B400AF00BFBD460C
:101BE00080BC704780B483B000AF78607B689B682E
:101BF00018460C37BD4680BC7047000080B582B0E7
:101C000000AF0023FB71144B1B7883F00103DBB2A0
:101C1000002B1BD0114B4FF0FF321A63FFF79CFCD7
:101C200000F056F84FF480710C4805F005F80B4BA6
:101C30004FF0FF321A63094805F03CF9002000F02C
:101C4000D3F900F05FF8044B01221A70FB791846B3
:101C50000837BD4680BD00BF780A0020340A002046
:101C600080B58EB000AF7860002387F8373007F179
:101C700008032C22002118461BF06AFD00F028F80A
:101C8000114B1B687A6813447B6000237B627B687E
:101C9000DB43FB600023FB614FF000533B624FF4DA
:101CA00080733B6307F1080301221946074804F0DB
:101CB000B7FE0346002B01D0FFF720FC97F8373022
:101CC00018463837BD4680BD7C0A0020340A002003
:101CD00080B582B000AF0023FB71084B0122DA65AA
:101CE0004FF48071064804F0A7FF054B4FF0FF3218
:101CF0001A63FB7918460837BD4680BD00280040AE
:101D0000340A002080B500AF00F08EF90346034A84
:101D10001360024B1B68184680BD00BF7C0A002080
:101D200080B400AF024B1B681846BD4680BC7047AC
:101D30007C0A002080B582B000AF00237B6000F0F9
:101D400073F90246044B1B68D31A7B607B68184604
:101D50000837BD4680BD00BF7C0A002080B582B038
:101D600000AF00237B60064B1B78002B02D000F0F5
:101D70005BF978607B6818460837BD4680BD00BFB8
:101D8000780A002080B483B000AF00237B60032377
:101D90007B607B6818460C37BD4680BC7047B0B589
:101DA00084B000AF78600021F960796800200A46AD
:101DB0000346950D94024FF47A724FF000032046CB
:101DC0002946FEF7D5FE02460B461346FB60FB682C
:101DD00018461037BD46B0BD2DE9B00F85B000AF35
:101DE00078600021F960796800200C46054620469D
:101DF00029464FF0000A4FF0000B4FEA411B4BEA17
:101E0000D06B4FEA401A50465946021B61EB05035E
:101E10004FF000004FF00001990041EA92719000EC
:101E200002460B4612EB040843EB05094FF0000293
:101E30004FF000034FEAC90343EA58734FEAC80260
:101E400090469946404649464FF000024FF0000345
:101E5000820A42EA81528B0A1346FB60FB681846ED
:101E60001437BD46BDE8B00F704780B584B000AFF1
:101E700078607868FFF793FFF86000F0D5F8B860F5
:101E800000E000BF00F0D0F80246BB68D31AFA6841
:101E90009A42F6D800BF00BF1037BD4680BD80B55E
:101EA00082B000AF78601BF083F800BF0837BD46F2
:101EB00080BD80B584B000AF786000F0A5F8F86010
:101EC000FB680133184600F08FF800BF1037BD469D
:101ED00080BD2DE9B04F8CB000AF78610023FB626C
:101EE00000F0A2F8B86200F08FF878627B6A0022F6
:101EF000BB60FA604FF000024FF00003B9680B00BE
:101F00000022B96A00200C46054612EB040843EB98
:101F10000509C7E90689D7E906014FF000024FF02D
:101F20000003820A42EA81528B0A1346FB62BB69B4
:101F300000223B607A603B68C3F3090A4FF0000B54
:101F4000C7E906ABBB691846FFF746FF03469AB2DE
:101F50007B691A80FB6A18463037BD46BDE8B08FF2
:101F600080B582B000AF78607A680021034805F040
:101F700033F800BF0837BD4680BD00BF340A0020DB
:101F800080B582B000AF78607A680121034805F01F
:101F900023F800BF0837BD4680BD00BF340A0020CB
:101FA00080B582B000AF00237B600021044805F0BB
:101FB0002BF878607B6818460837BD4680BD00BFA7
:101FC000340A002080B582B000AF00237B6001217D
:101FD000044805F019F878607B6818460837BD4654
:101FE00080BD00BF340A002080B582B000AF7860A9
:101FF0007A680221034804F0EFFF00BF0837BD46AE
:1020000080BD00BF340A002080B582B000AF02213D
:10201000044804F0F9FF78607B6818460837BD462D
:1020200080BD00BF340A002080B500AF0348FFF731
:10203000D9FD0346DB43184680BD00BF00280040A1
:1020400080B485B000AF78604FF0B043DA6C4FF0E9
:10205000B0417B681343CB644FF0B043DA6C7B68CC
:102060001340FB60FB6800BF1437BD4680BC70475F
:1020700080B485B000AF78604FF0B0439A6D4FF0F8
:10208000B0417B6813438B654FF0B0439A6D7B681A
:102090001340FB60FB6800BF1437BD4680BC70472F
:1020A00080B483B000AF78604FF0B0439A6D7B6826
:1020B000DB434FF0B04113408B6500BF0C37BD468A
:1020C00080BC704780B485B000AF78604FF0B043FB
:1020D0001A6E4FF0B0417B6813430B664FF0B0436C
:1020E0001A6E7B681340FB60FB6800BF1437BD4667
:1020F00080BC704780B483B000AF78604FF0B043CD
:102100001A6E7B68DB434FF0B04113400B6600BF93
:102110000C37BD4680BC704780B500AF224B234AC8
:102120001A60214B4FF4E1325A601F4B00229A6033
:102130001D4B0022DA601C4B00221A611A4B0C2244
:102140005A61194B00229A61174B0022DA61164B33
:1021500000221A62144B00225A62134B00229A6228
:10216000114805F03CFC0346002B01D0FFF7C6F9EF
:1021700000210D4807F08DFC0346002B01D0FFF72E
:10218000BDF90021084807F0C2FC0346002B01D02E
:10219000FFF7B4F9044807F041FC0346002B01D0D7
:1021A000FFF7ACF900BF80BD800A00200038014075
:1021B00080B596B000AF786007F1440300221A6042
:1021C0005A609A60DA601A6107F10C033822002124
:1021D00018461BF0BDFA7B681B685D4A934256D1D6
:1021E0000123FB605B4B3B6107F10C03184604F0D5
:1021F00083FA0346002B01D0FFF780F94FF48040AB
:10220000FFF760FF0220FFF71BFFC0237B64022360
:10221000BB640023FB6403233B6507237B6507F155
:10222000440319464C4802F0CFF84C4B4C4A1A6014
:102230004A4B12225A60494B10229A60474B0022A7
:10224000DA60464B80221A61444B00225A61434BAC
:1022500000229A61414B0022DA61404B00221A624F
:102260003E4801F09BFC0346002B01D0FFF746F9E6
:102270007B683A4A9A67394A7B6893620022022156
:10228000242001F054FC242001F06BFC5BE07B680F
:102290001B68344A934256D10223FB60324B7B6168
:1022A00007F10C03184604F027FA0346002B01D06F
:1022B000FFF724F94FF40030FFF7DAFE0120FFF7B3
:1022C000BFFE0C237B640223BB640023FB64032357
:1022D0003B6507237B6507F1440319464FF09040A7
:1022E00002F072F8214B1E4A1A60204B14225A60E9
:1022F0001E4B10229A601D4B0022DA601B4B80227D
:102300001A611A4B00225A61184B00229A61174B2E
:102310000022DA61154B00221A62144801F03EFCDB
:102320000346002B01D0FFF7E9F87B680F4A9A6754
:102330000E4A7B68936200220221252001F0F7FB00
:10234000252001F00EFC00BF5837BD4680BD00BF00
:10235000003801400100030000040048100B002079
:10236000580002400044004004000C00000C002013
:1023700080B582B000AF78607B681B68164A9342D4
:1023800010D14FF48040FFF7B5FEC021134802F092
:102390007BF97B689B6F184601F0A8FC242001F0B4
:1023A000EEFB15E07B681B680D4A934210D14FF499
:1023B0000030FFF775FE0C214FF0904002F064F9F9
:1023C0007B689B6F184601F091FC252001F0D7FB3C
:1023D00000BF0837BD4680BD0038014000040048FA
:1023E0000044004080B483B000AF78604FF0B04349
:1023F0001A6C4FF0B0417B6813430B6400BF0C377D
:10240000BD4680BC704780B483B000AF78604FF0A9
:10241000B0431A6C7B68DB434FF0B04113400B6450
:1024200000BF0C37BD4680BC7047000080B483B04D
:1024300000AF7860064BD3F8802005497B681343D2
:10244000C1F8803000BF0C37BD4680BC704700BF6C
:102450000008005880B582B000AF7860074A7B68FA
:102460001360FEF709FFFFF757FE4FF00060FFF71C
:10247000DDFF002318460837BD4680BD640C0020F0
:1024800080B500AF4FF48040FFF7ACFF4FF48040C1
:10249000FFF7B9FF0448FFF76BFF0F2001F06FFB58
:1024A0000023184680BD00BF800A002080B582B09E
:1024B00000AF78600B467B807B881A4679680448B9
:1024C00005F034FB002318460837BD4680BD00BF29
:1024D000800A002080B584B000AF7860194A7B681C
:1024E00013604FF40013BB6007F1080393E8060084
:1024F000154807F006FA00BF134B1B68DB6903F4AD
:102500008033B3F5803FF7D000BF0F4B1B68DB690A
:1025100003F48003B3F5800FF7D10B4B1B689A6867
:10252000094B1B6842F480029A60074807F044FA9E
:1025300001220649044805F0A3FA00231846103783
:10254000BD4680BD680C0020800A0020600C002081
:1025500080B582B000AF7860034B1B6800209847BD
:1025600000BF0837BD4680BD640C002080B582B036
:1025700000AF78600B4B1B68002B0AD07B68D3F848
:102580008C30002B05D1074B1B6800220121064827
:10259000984701220449786805F072FA00BF0837AD
:1025A000BD4680BD680C0020600C00200D488546AB
:1025B000FFF712FB0C480D490D4A002302E0D458E6
:1025C000C4500433C4188C42F9D30A4A0A4C00237D
:1025D00001E013600432A242FBD31BF095F8FEF732
:1025E0008BFEFEE700800020000000201801002084
:1025F000B8E6010818010020FC440020FEE780B482
:1026000085B000AF78604FF0B043DA6C4FF0B04166
:102610007B681343CB644FF0B043DA6C7B681340A4
:10262000FB60FB6800BF1437BD4680BC70470000EC
:1026300080B588B000AF0346FB7107F10C030022A0
:102640001A605A609A60DA601A610220FFF7D7FFB9
:102650002023FB6001233B6100237B610223BB61DC
:10266000FB790B4A52F8233007F10C021146184649
:1026700001F0AAFEFB79064A52F8233020210122FC
:10268000184602F0E6F8002318462037BD4680BD04
:102690000400002080B582B000AF0346FB71FB79D7
:1026A000064A52F8233020210022184602F0D1F8C1
:1026B000002318460837BD4680BD00BF0400002037
:1026C00080B582B000AF0346FB71FB79064A52F831
:1026D000233020210122184602F0BBF800231846BF
:1026E0000837BD4680BD00BF0400002080B588B01B
:1026F00000AF03460A46FB711346BB7107F10C039A
:1027000000221A605A609A60DA601A610220FFF7AC
:1027100076FF4FF40053FB6001237B610223BB6112
:10272000BB79002B0CD100233B61FB79204A52F886
:10273000233007F10C021146184601F045FE31E046
:102740004FF404133B61FB79194A52F8233007F127
:102750000C021146184601F037FEFB79DB00154AE2
:102760001A44FB79144951F823301946104601F0F8
:1027700018FEFB79DB000F4A9818FB790F4A52F8D4
:1027800023301A46002101F0F3FD2920FB790C4A81
:1027900052F823300022194601F0C9F929231846BE
:1027A00001F0DFF9002318462037BD4680BD00BF89
:1027B000080000206C0C002068E101080C000020DB
:1027C0001000002080B483B000AF0346FB7100BF4F
:1027D0000C37BD4680BC704780B500AF0020FFF7C6
:1027E000F1FF00BF80BD80B485B000AF78604FF0CE
:1027F000B043DA6C4FF0B0417B681343CB644FF0C9
:10280000B043DA6C7B681340FB60FB6800BF143791
:10281000BD4680BC704780B586B000AF3B1D00222E
:102820001A605A609A60DA601A610120FFF7DBFFD4
:1028300010237B600123BB600023FB6003233B610B
:102840003B1D19464FF0904001F0BEFD20237B60F8
:102850003B1D19464FF0904001F0B6FD00222021AB
:102860004FF0904001F0F5FF002210214FF0904012
:1028700001F0EFFF002318461837BD4680BD000069
:1028800080B582B000AF0346FB71FB79032B3FD8C4
:1028900001A252F823F000BFA9280008C3280008AD
:1028A000DD280008F7280008002210214FF0904092
:1028B00001F0CFFF002220214FF0904001F0C9FF2E
:1028C00027E0012210214FF0904001F0C2FF0022CA
:1028D00020214FF0904001F0BCFF1AE001221021AE
:1028E0004FF0904001F0B5FF012220214FF09040C1
:1028F00001F0AFFF0DE0002210214FF0904001F0F9
:10290000A8FF012220214FF0904001F0A2FF00E03B
:1029100000BF002318460837BD4680BD80B400AF15
:1029200002231846BD4680BC704780B400AF012327
:102930001846BD4680BC704780B400AF01231846DE
:10294000BD4680BC7047000080B582B000AF002358
:10295000FB71032001F0E0F803F0F0FC0346094AA4
:1029600013600F20FFF70EF90346002B02D001235E
:10297000FB7101E0FEF796FEFB7918460837BD466D
:1029800080BD00BF0000002080B400AF054B1B7865
:102990001A46054B1B681344034A136000BFBD462B
:1029A00080BC704718000020740C002080B400AF79
:1029B000024B1B681846BD4680BC70479075FF1FD0
:1029C00080B400AF024B1B681846BD4680BC704700
:1029D0009475FF1F80B400AF024B1B681846BD46BC
:1029E00080BC70479875FF1F80B483B000AF7860DB
:1029F00039607B681B6823F0E0723B681A437B6890
:102A00001A6000BF0C37BD4680BC704780B483B0ED
:102A100000AF78607B681B6803F0E07318460C37E2
:102A2000BD4680BC704780B485B000AFF860B96027
:102A30007A60FB685A69BB6803F00403072101FA56
:102A400003F3DB431A40BB6803F00403796801FA1F
:102A500003F31A43FB685A6100BF1437BD4680BCBC
:102A6000704780B483B000AF78607B68DB6803F4A4
:102A70004063002B01D1012300E0002318460C37EE
:102A8000BD4680BC704780B485B000AFF860B960C7
:102A90007A60FB689A6ABB6803F01F030F2101FA92
:102AA00003F3DB431A407B689B0E03F00F01BB6806
:102AB00003F01F0301FA03F31A43FB689A6200BF95
:102AC0001437BD4680BC704780B483B000AF7860D7
:102AD00039607B689A6A3B68C3F311031A437B68C9
:102AE0009A6200BF0C37BD4680BC704780B483B08B
:102AF00000AF786039607B689A6A3B68C3F3110362
:102B0000DB431A407B689A6200BF0C37BD4680BC2D
:102B1000704780B485B000AFF860B9607A60FB6838
:102B20005A69BB681B02DB431A40BB6819027B6809
:102B30000B4023F07C4323F0FF031A43FB685A61E8
:102B400000BF1437BD4680BC704780B483B000AF6F
:102B500078607B689B6823F0104323F0170343F0F1
:102B600080527B689A6000BF0C37BD4680BC7047BE
:102B700080B483B000AF78607B689B6823F010431B
:102B800023F017037A68936000BF0C37BD4680BC02
:102B9000704780B483B000AF78607B689B6803F0B7
:102BA0008053B3F1805F01D1012300E00023184678
:102BB0000C37BD4680BC704780B483B000AF7860EE
:102BC0007B689B6823F0004323F0170343F0010266
:102BD0007B689A6000BF0C37BD4680BC704780B4EC
:102BE00083B000AF78607B689B6823F0004323F0DC
:102BF000170343F002027B689A6000BF0C37BD46A2
:102C000080BC704780B483B000AF78607B689B68FD
:102C100003F00103012B01D1012300E0002318463A
:102C20000C37BD4680BC704780B483B000AF78607D
:102C30007B689B6803F00203022B01D1012300E0B3
:102C4000002318460C37BD4680BC704780B483B063
:102C500000AF78607B689B6823F0004323F0170384
:102C600043F004027B689A6000BF0C37BD4680BC0D
:102C7000704780B483B000AF78607B689B6823F0B6
:102C8000004323F0170343F010027B689A6000BFF3
:102C90000C37BD4680BC704780B483B000AF78600D
:102CA0007B689B6803F00403042B01D1012300E03F
:102CB000002318460C37BD4680BC704780B588B0ED
:102CC00000AF78600023FB770023BB6100237B61AA
:102CD0000023BB607B68002B01D10123AEE17B6840
:102CE0001B69002B7B689B6D002B09D17868FEF770
:102CF00039F97B680022DA657B68002283F854206A
:102D00007B681B681846FFF744FF0346002B15D16C
:102D10007B681B681846FFF718FF9B4B1B689B09D5
:102D20009A4AA2FB03239B0901335B00BB6002E0CC
:102D3000BB68013BBB60BB68002BF9D17B681B689B
:102D40001846FFF726FF0346002B0DD17B689B6DCD
:102D500043F010027B689A657B68DB6D43F00102EB
:102D60007B68DA650123FB777B681B681846FFF7F1
:102D700093FFF8607B689B6D03F01003002B40F01D
:102D80005481FB68002B40F050817B689B6D23F4DD
:102D9000817343F002027B689A657B681B68184662
:102DA000FFF730FF0346002B4FD17B681B68DB68C1
:102DB00023F018017B689A687B681B680A43DA6015
:102DC0007B685B6803F040427B68DB6C13437A6985
:102DD00013437B617B6893F83C30012B11D17B68F6
:102DE0005B6803F040427B681B6C1A437B685B6C3A
:102DF0001A437B689B6C1A437B69134343F00103BE
:102E00007B617B681B681A69614B13407A681268A2
:102E100079690B4313617B685B68B3F1404F14D051
:102E20007B685B68B3F1804F0FD07B685B68B3F160
:102E3000004F0AD0574B1B6823F470127B685B6805
:102E400003F47013534913430B607B681B7E9A0392
:102E50007B685B7EDB031A437B689B7E5B031343CB
:102E60007A68126B002A02D04FF4805200E00022F0
:102E70001A437B68DB681A437B681B69002B04DA02
:102E80007B681B6923F0004301E04FF400131A43F1
:102E90007B6893F82C305B001343BA691343BB6122
:102EA0007B6893F82030012B14D17B689B7E002B2C
:102EB00004D1BB6943F48033BB610BE07B689B6D3D
:102EC00043F020027B689A657B68DB6D43F001026A
:102ED0007B68DA657B685B6A002B09D07B685B6A7C
:102EE00003F4E0727B689B6A1343BA691343BB61C6
:102EF0007B681B68DB6823F4FE3323F4F3737A6882
:102F00001268B9690B43D3607B681B681A69224B4E
:102F100013407A68126879690B4313617B681868FB
:102F20007B685B6B1A460021FFF77DFD7B681868A4
:102F30007B689B6B1A461949FFF775FD7B681B6917
:102F4000002B08D17B681B689A6A7B681B6862F05B
:102F50000F029A6244E07B681B69B3F5001F3FD102
:102F600000233B610CE07B681A6E3B699B0022FAF0
:102F700003F303F00F030F2B12D03B6901333B61C6
:102F80003B69072BEFD90CE000000020632D3E05C4
:102F900002FCFF1F0827014002FCFFDF04FFFF03C4
:102FA00000BF3B69012B08D17B681B689A6A7B686C
:102FB0001B6862F00F029A6212E07B681B689B6AD2
:102FC0007B68DB69013B9B0003F01C036FF00F0281
:102FD00002FA03F17B681A6E7B681B680A439A62E7
:102FE0007B681B68DA68174B1340BA699A420BD1A9
:102FF0007B680022DA657B689B6D23F0030343F056
:1030000001027B689A6518E07B689B6D23F01203D0
:1030100043F010027B689A657B68DB6D43F0010228
:103020007B68DA650123FB7707E07B689B6D43F0E3
:1030300010027B689A650123FB77FB7F18462037D7
:10304000BD4680BDE7FF3F8380B584B000AF7860A8
:103050007B68002B01D101236AE07B689B6D43F004
:1030600002027B689A65786800F0BEFA0346FB733B
:10307000FB7B002B0FD1786800F082FB0346FB73CB
:10308000FB7B002B02D17B6801229A657B681B6861
:103090001846FFF76DFD7B681B685B687A681268ED
:1030A00023F4677323F0030353607B681B6840F2CB
:1030B0009F321A607B681B68D9687B681A681E4B50
:1030C0000B40D3607B681B681A697B681B6822F021
:1030D00040421A617B681B685A697B681B6822F052
:1030E00007025A617B681B681A6A7B681B6802F0DA
:1030F000F0221A627B681B689B6A7B681B6800224F
:103100009A620E4B1B680D4A23F0FE7313607868B9
:10311000FDF73CFF7B6800221A667B680022DA65B7
:103120007B6800229A657B68002283F85420FB7B31
:1031300018461037BD4680BD00023E830827014077
:1031400080B584B000AF78607B681B681846FFF7D5
:10315000A3FD0346002B32D17B6893F85430012B3A
:1031600001D102232EE07B68012283F85420786885
:1031700000F080FA0346FB73FB7B002B1AD17B68BF
:103180009B6D23F4706323F0010343F480727B682A
:103190009A657B680022DA657B681B681C221A60CE
:1031A0007B68002283F854207B681B681846FFF771
:1031B0004DFD06E07B68002283F8542001E00223E5
:1031C000FB73FB7B18461037BD4680BD80B584B0CD
:1031D00000AF78607B6893F85430012B01D1022353
:1031E00022E07B68012283F85420786800F0FCF923
:1031F0000346FB73FB7B002B11D1786800F0C0FA0B
:103200000346FB73FB7B002B09D17B689B6D23F48A
:10321000807323F0010343F001027B689A657B68A9
:10322000002283F85420FB7B18461037BD4680BD32
:1032300080B584B000AF786039607B685B69082B2B
:1032400002D10823FB6010E07B681B68DB6803F099
:103250000103002B07D07B689B6D43F020027B6845
:103260009A65012377E00423FB60FEF795FCB860C4
:1032700021E03B68B3F1FF3F1DD0FEF78DFC024615
:10328000BB68D31A3A689A4202D33B68002B12D12A
:103290007B681B681A68FB681340002B0BD17B68A6
:1032A0009B6D43F004027B689A657B68002283F87B
:1032B000542003234FE07B681B681A68FB681340A7
:1032C000002BD6D07B689B6D43F400727B689A65B7
:1032D0007B681B681846FFF7C4FB0346002B31D000
:1032E0007B689B7E002B2DD17B681B681B6803F0DD
:1032F0000803082B26D17B681B681846FFF7CCFC17
:103300000346002B12D17B681B685A687B681B68D8
:1033100022F00C025A607B689B6D23F4807323F0CB
:10332000010343F001027B689A650BE07B689B6DAB
:1033300043F020027B689A657B68DB6D43F00102F5
:103340007B68DA657B681B7E002B03D17B681B687A
:103350000C221A60002318461037BD4680BD80B489
:1033600083B000AF78607B681B681B6C18460C3715
:10337000BD4680BC7047000080B588B000AF786063
:1033800039600023FB770023BB607B681B69B3F1C6
:10339000004F7B6893F85430012B01D1022310E1D8
:1033A0007B68012283F854207B681B681846FFF76E
:1033B00073FC0346002B40F0F7803B685B68022BF0
:1033C00000F0B1807B681B69B3F1004F04D07B68CB
:1033D0001B697E4A934208D17B681A683B681B6868
:1033E00019461046FFF770FB41E07B681A6E3B6898
:1033F0005B6803F01F030F2101FA03F3DB431A405C
:103400003B681B68C3F31103002B05D13B681B68A5
:103410009B0E03F01F0311E03B681B683B613B6997
:1034200093FAA3F3FB60FB687B617B69002B01D1FE
:10343000202303E07B69B3FA83F3DBB23968496880
:1034400001F01F018B401A437B681A663B685B687A
:103450009B085A1C7B68DB699A4208D87B6818680D
:103460003B6859683B681B681A46FFF70CFB7B6892
:1034700018683B6819683B689B681A46FFF749FB68
:103480003B681B68002B80F297805148FFF7BEFA1B
:10349000B8613B681B684F4A934220D1BB6903F473
:1034A0000003002B1BD1BB6943F4000319464848B5
:1034B000FFF79AFA484B1B689B09484AA2FB032373
:1034C0009B095A1C13465B0013449B00BB6002E03F
:1034D000BB68013BBB60BB68002BF9D16CE03B686B
:1034E0001B683F4A93420CD1BB6903F08073002BE9
:1034F00007D1BB6943F0807319463548FFF774FA6A
:103500005AE03B681B68374A934255D1BB6903F4C4
:103510008003002B50D1BB6943F4800319462C482B
:10352000FFF762FA48E07B681B69B3F1004F04D0F3
:103530007B681B69254A934207D17B681A683B6800
:103540001B6819461046FFF7D1FA3B681B68002B31
:1035500032DA1F48FFF75AFAB8613B681B681D4A08
:10356000934207D1BB6923F4000319461848FFF7BB
:103570003BFA21E03B681B68194A934207D1BB69BB
:1035800023F0807319461248FFF72EFA14E03B68C7
:103590001B68144A93420FD1BB6923F48003194678
:1035A0000B48FFF721FA07E07B689B6D43F0200290
:1035B0007B689A650123FB777B68002283F854209F
:1035C000FB7F18462037BD4680BD00BF0400008049
:1035D00008270140001000B000000020632D3E05C8
:1035E000004000B8002000B480B584B000AF78601F
:1035F0007B681B681846FFF74FFB0346002B33D050
:103600007B681B681846FFF70FFB0346002B04D1AD
:103610007B681B681846FFF72CFBFEF7BDFAF860C5
:103620001BE0FEF7B9FA0246FB68D31A022B14D945
:103630007B681B689B6803F00403002B0DD07B683C
:103640009B6D43F010027B689A657B68DB6D43F0ED
:1036500001027B68DA65012307E07B681B689B68D1
:1036600003F00403002BDCD1002318461037BD46BD
:1036700080BD000080B584B000AF78600023BB60DF
:103680007B681B681846FFF7BDFA0346002B69D11B
:103690007B681B689A68364B1340002B0DD07B6803
:1036A0009B6D43F010027B689A657B68DB6D43F08D
:1036B00001027B68DA65012355E07B681B681846C8
:1036C000FFF77AFA2B48FFF7A1F9034603F400034A
:1036D000002B0FD0284B1B689B09284AA2FB032311
:1036E0009B090133BB6002E0BB68013BBB60BB6868
:1036F000002BF9D17B685B7E012B33D0FEF74CFAAF
:10370000F86028E07B681B681846FFF77BFA0346E1
:10371000002B04D17B681B681846FFF74DFAFEF7B3
:103720003BFA0246FB68D31A022B14D97B681B684C
:103730001B6803F00103012B0DD07B689B6D43F0E8
:1037400010027B689A657B68DB6D43F001027B6841
:10375000DA65012307E07B681B681B6803F001033F
:10376000012BCFD1002318461037BD4680BD00BFC6
:10377000170000800827014000000020632D3E054F
:1037800080B584B000AF78607B681B681846FFF78F
:103790004BFAF8607B681B681846FFF733FA03465C
:1037A000002B47D0FB68002B44D17B681B689B68CB
:1037B00003F00503012B0CD17B681B681846FFF74B
:1037C0000EFA7B681B6803221A60FEF7E5F9B86001
:1037D00029E07B689B6D43F010027B689A657B68EB
:1037E000DB6D43F001027B68DA65012323E0FEF71D
:1037F000D3F90246BB68D31A022B14D97B681B6825
:103800009B6803F00103002B0DD07B689B6D43F098
:1038100010027B689A657B68DB6D43F001027B6870
:10382000DA65012307E07B681B689B6803F00103EE
:10383000002BDCD1002318461037BD4680BD80B474
:1038400083B000AF78607B689B6803F00103012BB5
:1038500001D1012300E0002318460C37BD4680BC8F
:10386000704780B483B000AF78607B689B6803F0DA
:103870000043B3F1004F01D1012300E000231846BB
:103880000C37BD4680BC704780B586B000AF78600D
:103890000023FB607B6893F85430012B01D1022395
:1038A00068E07B68012283F854207868FFF768FF9E
:1038B0000346FB757B681B681846FFF7C0FF03468D
:1038C000002B4CD17B689B6D23F4817343F0020283
:1038D0007B689A657B681B68DB6803F003033B61C8
:1038E0007B681B68DA687B681B6822F00302DA6079
:1038F0007B681B689A687B681B6842F000429A608C
:1039000014E0FB680133FB60FB68B3F52E3F0DD379
:103910007B689B6D23F0120343F010027B689A656D
:103920007B68002283F85420012323E07B681B6816
:103930001846FFF796FF0346002BE2D17B681B6811
:10394000D9687B681B683A690A43DA607B689B6DBB
:1039500023F0030343F001027B689A6505E07B686E
:103960009B6D43F010027B689A657B68002283F8A8
:103970005420FB7D18461837BD4680BD80B485B005
:1039800000AF78607B6803F00703FB600C4BDB68DB
:10399000BB60BA684FF6FF031340BB60FB681A02B6
:1039A000BB68134343F0BF6343F40033BB60044A76
:1039B000BB68D36000BF1437BD4680BC704700BFF2
:1039C00000ED00E080B400AF044BDB681B0A03F09D
:1039D00007031846BD4680BC704700BF00ED00E0FD
:1039E00080B483B000AF0346FB7197F90730002B1A
:1039F0000BDBFB7903F01F02064997F907305B09DF
:103A0000012000FA02F241F8232000BF0C37BD4626
:103A100080BC704700E100E080B483B000AF034693
:103A2000FB7197F90730002B12DBFB7903F01F02C3
:103A30000A4997F907305B09012000FA02F22033A6
:103A400041F82320BFF34F8F00BFBFF36F8F00BF3C
:103A500000BF0C37BD4680BC704700BF00E100E0EE
:103A600080B483B000AF03463960FB7197F907302B
:103A7000002B0ADB3B68DAB20C4997F907301201D8
:103A8000D2B20B4483F800230AE03B68DAB208495B
:103A9000FB7903F00F03043B1201D2B20B441A76F8
:103AA00000BF0C37BD4680BC704700BF00E100E09E
:103AB00000ED00E080B489B000AFF860B9607A60D2
:103AC000FB6803F00703FB61FB69C3F10703042BE9
:103AD00028BF0423BB61FB690433062B02D9FB69B1
:103AE000033B00E000237B614FF0FF32BB6902FA29
:103AF00003F3DA43BB681A407B699A404FF0FF3109
:103B00007B6901FA03F3D9437B680B4013431846E2
:103B10002437BD4680BC704780B582B000AF786066
:103B20007868FFF72BFF00BF0837BD4680BD80B522
:103B300086B000AF0346B9607A60FB73FFF742FFBF
:103B400078617A68B9687869FFF7B4FF024697F937
:103B50000F3011461846FFF783FF00BF1837BD46E8
:103B600080BD80B582B000AF0346FB7197F9073086
:103B70001846FFF735FF00BF0837BD4680BD80B54A
:103B800082B000AF0346FB7197F907301846FFF784
:103B900043FF00BF0837BD4680BD000080B582B03E
:103BA00000AF78607B68002B01D101238EE07B6839
:103BB0001B681A46474B9A420FD87B681B681A4607
:103BC000454B1344454AA2FB03231B099A007B681B
:103BD0005A647B68424A1A640EE07B681B681A4686
:103BE000404B13443D4AA2FB03231B099A007B6808
:103BF0005A647B683C4A1A647B68022283F8252059
:103C00007B681B681B687A68126823F4FF4323F003
:103C1000700313607B681B6819687B689A687B680F
:103C2000DB681A437B681B691A437B685B691A432C
:103C30007B689B691A437B68DB691A437B681B6A54
:103C40001A437B681B680A431A60786800F024FBFB
:103C50007B689B68B3F5804F02D17B6800225A6075
:103C60007B685A687B689B6C02F07F021A607B68F5
:103C7000DB6C7A68126D5A607B685B68002B10D031
:103C80007B685B68042B0CD8786800F04DFB7B6880
:103C90005B6D00221A607B689B6D7A68D26D5A60FA
:103CA00008E07B6800225A657B6800229A657B6881
:103CB0000022DA657B680022DA637B68012283F8E0
:103CC00025207B68002283F824200023184608372B
:103CD000BD4680BD07040240F8FFFDBFCDCCCCCC73
:103CE00000000240F8FBFDBF0004024080B582B036
:103CF00000AF78607B68002B01D101237BE07B68FB
:103D00001B681A687B681B6822F001021A607B68D6
:103D10001B681A463A4B9A420FD87B681B681A46B2
:103D2000384B1344384AA2FB03231B099A007B68D3
:103D30005A647B68354A1A640EE07B681B681A4631
:103D4000334B1344304AA2FB03231B099A007B68C0
:103D50005A647B682F4A1A647B681B6800221A60C9
:103D60007B685B6C03F01C027B681B6C012101FA11
:103D700002F25A60786800F08FFA7B689B6C002230
:103D80001A607B68DB6C7A68126D5A607B685B68CE
:103D9000002B0FD07B685B68042B0BD8786800F091
:103DA000C3FA7B685B6D00221A607B689B6D7A6842
:103DB000D26D5A607B6800225A657B6800229A6542
:103DC0007B680022DA657B680022DA627B68002269
:103DD0001A637B6800225A637B6800229A637B68BF
:103DE0000022DA637B68002283F825207B680022AA
:103DF00083F82420002318460837BD4680BD00BF45
:103E000007040240F8FFFDBFCDCCCCCC000002403F
:103E1000F8FBFDBF0004024080B586B000AFF8603B
:103E2000B9607A603B600023FB75FB6893F824302F
:103E3000012B01D1022369E0FB68012283F82420D1
:103E4000FB6893F82530DBB2012B55D1FB680222C9
:103E500083F82520FB680022DA63FB681B681A6878
:103E6000FB681B6822F001021A603B687A68B96837
:103E7000F86800F0D3F9FB681B6B002B08D0FB68D7
:103E80001B681A68FB681B6842F00E021A600FE09C
:103E9000FB681B681A68FB681B6822F004021A6042
:103EA000FB681B681A68FB681B6842F00A021A600C
:103EB000FB689B6C1B6803F48033002B07D0FB6806
:103EC0009B6C1A68FB689B6C42F480721A60FB68FA
:103ED0005B6D002B07D0FB685B6D1A68FB685B6D40
:103EE00042F480721A60FB681B681A68FB681B68E2
:103EF00042F001021A6008E0FB688022DA63FB6886
:103F0000002283F824200123FB75FB7D1846183717
:103F1000BD4680BD80B483B000AF78607B68002B65
:103F200001D101234FE07B6893F82530DBB2022BEF
:103F300008D07B680422DA637B68002283F824209F
:103F4000012340E07B681B681A687B681B6822F0CD
:103F50000E021A607B689B6C1A687B689B6C22F46B
:103F600080721A607B681B681A687B681B6822F085
:103F700001021A607B685B6C03F01C027B681B6C9F
:103F8000012101FA02F25A607B68DB6C7A68126DDB
:103F90005A607B685B6D002B0CD07B685B6D1A6888
:103FA0007B685B6D22F480721A607B689B6D7A6817
:103FB000D26D5A607B68012283F825207B6800223D
:103FC00083F82420002318460C37BD4680BC704778
:103FD00080B584B000AF78600023FB737B6893F8F2
:103FE0002530DBB2022B05D07B680422DA63012383
:103FF000FB7347E07B681B681A687B681B6822F0CC
:104000000E021A607B681B681A687B681B6822F0C6
:1040100001021A607B689B6C1A687B689B6C22F4B7
:1040200080721A607B685B6C03F01C027B681B6CFF
:10403000012101FA02F25A607B68DB6C7A68126D2A
:104040005A607B685B6D002B0CD07B685B6D1A68D7
:104050007B685B6D22F480721A607B689B6D7A6866
:10406000D26D5A607B68012283F825207B6800228C
:1040700083F824207B689B6B002B03D07B689B6BB1
:1040800078689847FB7B18461037BD4680BD000016
:1040900080B584B000AF78607B681B6C1B68FB60E8
:1040A0007B681B681B68BB607B685B6C03F01C0350
:1040B00004229A40FB681340002B27D0BB6803F012
:1040C0000403002B22D07B681B681B6803F02003CD
:1040D000002B07D17B681B681A687B681B6822F07D
:1040E00004021A607B685B6C03F01C027B681B6C2B
:1040F000042101FA02F25A607B681B6B002B00F06E
:1041000081807B681B6B786898477BE07B685B6C81
:1041100003F01C0302229A40FB681340002B3DD0A1
:10412000BB6803F00203002B38D07B681B681B6858
:1041300003F02003002B0BD17B681B681A687B6897
:104140001B6822F00A021A607B68012283F825208E
:104150007B681B681A462E4B9A4209D97B685B6CB8
:1041600003F01C032B4A022101FA03F3536008E019
:104170007B685B6C03F01C03274A022101FA03F3FE
:1041800053607B68002283F824207B68DB6A002B65
:1041900038D07B68DB6A7868984733E07B685B6C73
:1041A00003F01C0308229A40FB681340002B2AD01E
:1041B000BB6803F00803002B25D07B681B681A68D6
:1041C0007B681B6822F00E021A607B685B6C03F050
:1041D0001C027B681B6C012101FA02F25A607B68A9
:1041E0000122DA637B68012283F825207B680022A4
:1041F00083F824207B685B6B002B04D07B685B6BAF
:104200007868984700BF00BF1037BD4680BD00BF2B
:1042100080000240000402400000024080B485B0EB
:1042200000AFF860B9607A603B60FB68DB6CFA68ED
:10423000126D5A60FB685B6D002B04D0FB689B6DB0
:10424000FA68D26D5A60FB685B6C03F01C02FB6875
:104250001B6C012101FA02F25A60FB681B683A6884
:104260005A60FB689B68102B08D1FB681B687A6852
:104270009A60FB681B68BA68DA6007E0FB681B6835
:10428000BA689A60FB681B687A68DA6000BF143706
:10429000BD4680BC7047000080B485B000AF786038
:1042A0007B681B681A461C4B9A4213D87B685B6C70
:1042B0009B089B0003F1804303F502337A68936403
:1042C0007B681B68DBB2083B144AA2FB03231B0973
:1042D000FB6011E07B685B6C9B089A00104B1344F9
:1042E0007A6893647B681B68DBB2083B0B4AA2FBCD
:1042F00003231B090733FB607B680A4ADA64FB6807
:1043000003F01F0301229A407B681A6500BF14372F
:10431000BD4680BC704700BF07040240CDCCCCCC6A
:104320001C0802408008024080B485B000AF78606D
:104330007B685B6803F07F03FB60FA680A4B1344F9
:104340009B001A467B685A657B68084A9A65FB6839
:10435000013B03F0030301229A407B68DA6500BF4A
:104360001437BD4680BC70473F82001040090240B0
:1043700080B487B000AFF8600B467A60FB72002310
:10438000FB75FB7A002B03D1FB687A685A6002E068
:104390000123FB7500BFFB7D18461C37BD4680BC62
:1043A000704780B483B000AF786039607B68002BC1
:1043B00001D1012303E07B683A681A6000231846A4
:1043C0000C37BD4680BC704780B487B000AF7860C2
:1043D000396000237B6140E13B681A6801217B69F9
:1043E00001FA03F31340FB60FB68002B00F03281FD
:1043F0003B685B6803F00303012B05D03B685B68F7
:1044000003F00303022B30D17B689B683B617B691F
:104410005B00032202FA03F3DB433A6913403B617A
:104420003B68DA687B695B0002FA03F33A6913437D
:104430003B617B683A699A607B685B683B610122FB
:104440007B6902FA03F3DB433A6913403B613B6843
:104450005B681B0903F001027B6902FA03F33A6906
:1044600013433B617B683A695A603B685B6803F0C1
:104470000303032B17D07B68DB683B617B695B0020
:10448000032202FA03F3DB433A6913403B613B68C2
:104490009A687B695B0002FA03F33A6913433B6154
:1044A0007B683A69DA603B685B6803F00303022BC0
:1044B00023D17B69DA087B68083253F822303B61EC
:1044C0007B6903F007039B000F2202FA03F3DB432F
:1044D0003A6913403B613B681A697B6903F0070343
:1044E0009B0002FA03F33A6913433B617B69DA08E4
:1044F0007B680832396943F822107B681B683B618E
:104500007B695B00032202FA03F3DB433A69134041
:104510003B613B685B6803F003027B695B0002FA66
:1045200003F33A6913433B617B683A691A603B685D
:104530005B6803F44033002B00F08C804E4A7B69AB
:104540009B08023352F823303B617B6903F003037D
:104550009B00072202FA03F3DB433A6913403B61F5
:104560007B68B3F1904F0DD07B68444A934207D0EB
:104570007B68434A934201D1022304E0072302E00F
:10458000012300E000237A6902F0030292009340C5
:104590003A6913433B6138497B699B0802333A69A6
:1045A00041F82320374BD3F880303B61FB68DB4375
:1045B0003A6913403B613B685B6803F48033002B2E
:1045C00003D03A69FB6813433B612E4A3B69C2F84A
:1045D00080302C4BD3F884303B61FB68DB433A6975
:1045E00013403B613B685B6803F40033002B03D04E
:1045F0003A69FB6813433B61224A3B69C2F8843045
:10460000204B1B683B61FB68DB433A6913403B610D
:104610003B685B6803F48013002B03D03A69FB68A6
:1046200013433B61174A3B691360164B5B683B6160
:10463000FB68DB433A6913403B613B685B6803F40A
:104640000013002B03D03A69FB6813433B610D4A0A
:104650003B6953607B6901337B613B681A687B6906
:1046600022FA03F3002B7FF4B7AE00BF00BF1C3764
:10467000BD4680BC704700BF0000014000040048F8
:10468000000800480008005880B487B000AF786088
:10469000396000237B61AFE001227B6902FA03F3FA
:1046A0003A6813403B613B69002B00F0A280594AF5
:1046B0007B699B08023352F82330FB607B6903F06F
:1046C00003039B00072202FA03F3FA681340FB601E
:1046D0007B68B3F1904F0DD07B684F4A934207D06F
:1046E0007B684E4A934201D1022304E0072302E093
:1046F000012300E000237A6902F003029200934054
:10470000FA689A4236D1464BD3F880203B69DB43A6
:1047100043491340C1F88030414BD3F884203B69B2
:10472000DB433F491340C1F884303D4B1A683B6975
:10473000DB433B4913400B60394B5A683B69DB4311
:10474000374913404B607B6903F003039B0007224A
:1047500002FA03F3FB602F4A7B699B08023352F88D
:104760002310FB68DA432B487B699B080A4002331D
:1047700040F823207B681A687B695B00032101FAFB
:1047800003F31A437B681A607B69DA087B68083296
:1047900053F822107B6903F007039B000F2202FAF3
:1047A00003F3DB437A69D20819407B68083243F887
:1047B00022107B689A687B695B00032101FA03F38E
:1047C000DB431A407B689A607B685A6801217B69E9
:1047D00001FA03F3DB431A407B685A607B68DA68AE
:1047E0007B695B00032101FA03F3DB431A407B681A
:1047F000DA607B6901337B613A687B6922FA03F3F3
:10480000002B7FF449AF00BF00BF1C37BD4680BC02
:10481000704700BF00000140000400480008004845
:104820000008005880B485B000AF78600B467B80EC
:104830007B681A697B881340002B02D00123FB732D
:1048400001E00023FB73FB7B18461437BD4680BC98
:10485000704780B483B000AF78600B467B8013460E
:104860007B707B78002B03D07A887B689A6102E0AA
:104870007A887B689A6200BF0C37BD4680BC70475F
:1048800080B582B000AF0346FB80084BDA68FB8836
:104890001340002B06D0054AFB88D360FB881846DE
:1048A00005F0EEFB00BF0837BD4680BD000800588C
:1048B00080B483B000AF78604FF0B043D3F8882065
:1048C0007B681B0C1B04DB431A407B681B044FF006
:1048D000B0411343C1F8883000BF0C37BD4680BCDF
:1048E000704780B483B000AF78604FF0B043D3F826
:1048F00088207B6813401A0C7B68134318460C37DA
:10490000BD4680BC704780B483B000AF78604FF084
:10491000B0439A6B4FF0B0417B6813438B6300BF89
:104920000C37BD4680BC704780B483B000AF786060
:104930004FF0B043DA6B4FF0B0417B681343CB6369
:1049400000BF0C37BD4680BC704780B483B000AF59
:1049500078604FF0B0439A6B7B68DB434FF0B04117
:1049600013408B6300BF0C37BD4680BC704780B4DA
:1049700083B000AF78604FF0B043DA6B7B68DB4305
:104980004FF0B0411340CB6300BF0C37BD4680BC35
:104990007047000080B584B000AF78607B68002B62
:1049A00001D10123B6E07B685B68012B7B6893F83B
:1049B0003A30DBB2002B06D17B68002283F8392025
:1049C0007868FCF779FE7B68022283F83A207B68DE
:1049D0001B681A697B681B6842F001021A617B68D8
:1049E0001B684FF480725A607B681B687A68526B50
:1049F0009A624FF48071786800F0C2FA0346032B84
:104A000001D1032386E0786800F0EAFA786800F0C4
:104A1000AAFA0346032B01D103237BE07B681B68C2
:104A2000DB68FB607B685B68012B04D07B689B6A5A
:104A3000B3F5000F03D1FB6823F01E03FB607B6816
:104A40005B694FF6FF72934205D0FB6823F4604325
:104A500023F0C003FB60FA68304B1340FB607B68B7
:104A60005A687B689B681A437B681B6A1A437B6899
:104A70005B6A1A437B689B6A1343FA681343FB60C3
:104A80007B685B68002B07D17B68DA697B681B69F0
:104A90001343FA681343FB607B685B68012B04D007
:104AA0007B689B6AB3F5000F07D17B68DA687B6887
:104AB0001B691343FA681343FB607B685B694FF61D
:104AC000FF7293420AD07B685A697B689B691A43DC
:104AD0007B68DB691343FA681343FB607B681B68E0
:104AE000FA68DA607B681B680D4A934208D17B68DC
:104AF000D96A7B681A6B7B681B680A431A6204E0F8
:104B00007B681B687A68D26A1A627B68012283F824
:104B10003A20002318461037BD4680BDFEF119FF2C
:104B2000007C004080B582B000AF786039607B685F
:104B3000022283F83A207B681B68484A934208D1D6
:104B4000474BD3F88030464A43F00053C2F88030D8
:104B500015E07B681B68434A934208D1404BD3F869
:104B600080303F4A43F08043C2F8803007E03C4B3E
:104B7000D3F880303A4A43F00043C2F880307B6873
:104B80005B68012B0CD07B689B6AB3F5000F07D1E3
:104B90007B681B68DA687B681B6822F46062DA60F5
:104BA0007B681B681A697B681B6842F001021A6106
:104BB0007B681B6810225A607B681B683A689A61A0
:104BC0001021786800F0DCF90346032B01D10323A0
:104BD0003FE0786800F004FA786800F0C4F9034612
:104BE000032B01D1032334E07B681B689A687B6840
:104BF0001B6842F010029A607B681B689A687B68A9
:104C00001B6842F002029A607B681B689A687B68A6
:104C10001B6842F480729A607B681B689A687B68A4
:104C20001B6842F080029A607B681B681A697B6887
:104C30001B6842F001021A617B681B681A697B6875
:104C40001B6842F004021A617B68012283F83A2053
:104C5000002318460837BD4680BD00BF007C0040D9
:104C6000000800580094004080B582B000AF786022
:104C70007B68022283F83A207B681B682A4A9342A9
:104C800008D12A4BD3F88030284A23F00053C2F8C9
:104C9000803015E07B681B68254A934208D1234B7E
:104CA000D3F88030214A23F08043C2F8803007E0F7
:104CB0001E4BD3F880301D4A23F00043C2F88030E9
:104CC000786800F08DF9786800F04DF90346032B01
:104CD00001D1032324E07B681B689A687B681B680A
:104CE00022F010029A607B681B689A687B681B68D8
:104CF00022F002029A607B681B689A687B681B68D6
:104D000022F480729A607B681B689A687B681B68D3
:104D100022F080029A607B68012283F83A20002307
:104D200018460837BD4680BD007C0040000800588A
:104D30000094004080B582B000AF78607B681B684B
:104D40001B6803F00103012B0DD17B681B689B6876
:104D500003F00103012B06D17B681B6801225A6016
:104D6000786800F0AFF87B681B681B6803F00203EB
:104D7000022B0DD17B681B689B6803F00203022B9A
:104D800006D17B681B6802225A60786800F0A3F89D
:104D90007B681B681B6803F00403042B0DD17B6840
:104DA0001B689B6803F00403042B06D17B681B6817
:104DB00004225A60786800F097F87B681B681B68CB
:104DC00003F00803082B0DD17B681B689B6803F078
:104DD0000803082B06D17B681B6808225A60786894
:104DE00000F08BF87B681B681B6803F01003102B26
:104DF0000DD17B681B689B6803F01003102B06D154
:104E00007B681B6810225A60786800F07FF87B6826
:104E10001B681B6803F02003202B0DD17B681B68E7
:104E20009B6803F02003202B06D17B681B6820229F
:104E30005A60786800F073F87B681B681B6803F0A1
:104E40004003402B0DD17B681B689B6803F0400337
:104E5000402B06D17B681B6840225A60786800F0BE
:104E600067F87B681B681B6803F08003802B0DD1FB
:104E70007B681B689B6803F08003802B06D17B68EE
:104E80001B6880225A60786800F05BF87B681B68BA
:104E90001B6803F48073B3F5807F0FD17B681B68B8
:104EA0009B6803F48073B3F5807F07D17B681B6830
:104EB0004FF480725A60786800F04CF800BF0837F1
:104EC000BD4680BD80B483B000AF786000BF0C37B2
:104ED000BD4680BC704780B483B000AF786000BF2F
:104EE0000C37BD4680BC704780B483B000AF78609B
:104EF00000BF0C37BD4680BC704780B483B000AFA4
:104F0000786000BF0C37BD4680BC704780B483B06A
:104F100000AF786000BF0C37BD4680BC704780B4DE
:104F200083B000AF786000BF0C37BD4680BC7047CF
:104F300080B483B000AF786000BF0C37BD4680BC42
:104F4000704780B483B000AF786000BF0C37BD46B7
:104F500080BC704780B483B000AF786000BF0C376E
:104F6000BD4680BC704780B483B000AF78607B687A
:104F700093F83A30DBB218460C37BD4680BC704718
:104F800080B485B000AF786039600023FB73124BAA
:104F90001B68124AA2FB03239B0B4FF47A7202FB9D
:104FA00003F3BB60BB68013BBB60BB68002B01D156
:104FB0000323FB737B681B681A683B6813403A68DD
:104FC0009A4202D0BB68002BECD1FB7B1846143709
:104FD000BD4680BC704700BF000000205917B7D104
:104FE00080B58AB000AF786000237B6272B600BFE4
:104FF0007B681B688D4A934215D08C4A934218D81F
:105000008B4A934203D08B4A934206D011E04FF46F
:105010004020FFF766FC78620CE04FF44010FFF789
:1050200060FC786206E04FF44000FFF75AFC7862BB
:1050300000E000BF7B681B689B683B627B681B6865
:10504000DB68FB617B681B685B69BB617B681B6815
:105050009B697B617B681B681B6A3B617B681B6883
:105060009B6AFB607B681B68704A934219D06F4A49
:1050700093421DD86E4A934203D06E4A934209D0A0
:1050800016E04FF00040FFF73EFC4FF00040FFF706
:105090005CFC0EE02020FFF747FC2020FFF767FCB8
:1050A00007E04020FFF740FC4020FFF760FC00E0F5
:1050B00000BFBB69002B06D17B69002B03D1FB68C5
:1050C000002B00F096807B681B68584A934213D0EF
:1050D000564A934215D8564A934203D0554A9342B2
:1050E00005D00EE04FF44020FFF7E2FB0AE04FF45A
:1050F0004010FFF7DDFB05E04FF44000FFF7D8FB61
:1051000000E000BFBB69002B1AD07B681B681A69DE
:105110007B681B6842F001021A617B681B68BA69F0
:105120005A6108217868FFF72BFF0346032B03D150
:105130007B68032283F83A207B681B6808225A6048
:105140007B69002B1AD07B681B681A697B681B6817
:1051500042F001021A617B681B687A699A6110212A
:105160007868FFF70DFF0346032B03D17B6803220A
:1051700083F83A207B681B6810225A60FB68002B7A
:105180001CD07B681B681A697B681B6842F00102AF
:105190001A617B681B68FA689A624FF480717868BC
:1051A000FFF7EEFE0346032B03D17B68032283F84F
:1051B0003A207B681B684FF480725A607B681B68DA
:1051C0001A4A934211D0194A934214D8184A93426A
:1051D00003D0184A934204D00DE0786AFFF768FBC9
:1051E0000AE0786AFFF764FB06E0786AFFF760FB85
:1051F00002E000BF00E000BF7B681B681A697B68A3
:105200001B6822F001021A617B681B683A6A9A6087
:105210007B681B68FA69DA607B681B683A691A6206
:1052200062B600BF00BF2837BD4680BD0098004071
:10523000007C00400094004080B400AF044B1B6829
:10524000034A43F48073136000BFBD4680BC7047BF
:105250000004005880B582B000AF78600B46FB7048
:105260007B68002B0CD1134B5B6903F40073B3F51F
:10527000007F0DD100F03CF80346002B08D015E06C
:105280000C4B5B6903F40073002B01D100F022F892
:10529000094B1B69084A23F004031361FB78012BB7
:1052A00001D130BF02E040BF20BF20BF0837BD465C
:1052B00080BD00BF0004005800ED00E080B400AFE6
:1052C000034B1B6803F4C0631846BD4680BC70479F
:1052D0000004005880B400AF044B1B68034A43F439
:1052E0008043136000BFBD4680BC70470004005877
:1052F00080B483B000AF164B1B68154A23F480437B
:105300001360144B1B68322202FB03F3124AA2FB08
:1053100003239B0C7B6002E07B68013B7B600C4BB2
:105320005B6903F40073B3F5007F02D17B68002B47
:10533000F2D1074B5B6903F40073B3F5007F01D131
:10534000032300E0002318460C37BD4680BC70479D
:10535000000400580000002083DE1B4380B400AF2F
:10536000064B1B6803F48073B3F5807F01D10123E2
:1053700000E000231846BD4680BC7047000400587A
:1053800080B400AF4FF0B0431B684FF0B04243F41D
:105390000013136000BFBD4680BC704780B400AFEF
:1053A0004FF0B0431B684FF0B04223F4001313607A
:1053B00000BFBD4680BC704780B400AF4FF0B04323
:1053C0001B6803F48013B3F5801F01D1012300E0B3
:1053D00000231846BD4680BC704780B400AF4FF034
:1053E000B0431B684FF0B04243F48033136000BFFA
:1053F000BD4680BC704780B400AF4FF0B0431B681F
:105400004FF0B04223F48033136000BFBD4680BC30
:10541000704780B400AF4FF0B0431B6803F4003313
:10542000B3F5003F01D1012300E000231846BD463B
:1054300080BC704780B400AF4FF0B0431B684FF0A2
:10544000B04243F48073136000BFBD4680BC704718
:1054500080B400AF4FF0B0431B684FF0B04223F46C
:105460008073136000BFBD4680BC704780B400AF3E
:105470004FF0B0431B6803F48063B3F5806F01D134
:10548000012300E000231846BD4680BC704780B46D
:1054900083B000AF78604FF0B0435B6823F0FE420A
:1054A0007B681B064FF0B04113434B6000BF0C37C5
:1054B000BD4680BC704780B400AF4FF0B043D3F816
:1054C000903003F00203022B01D1012300E00023FE
:1054D0001846BD4680BC704780B400AF4FF0B04363
:1054E000D3F894304FF0B04243F00103C2F8943047
:1054F00000BFBD4680BC704780B400AF4FF0B043E2
:10550000D3F894304FF0B04223F00103C2F8943046
:1055100000BFBD4680BC704780B400AF4FF0B043C1
:10552000D3F8943003F00203022B01D1012300E0F1
:1055300000231846BD4680BC704780B400AF4FF0D2
:10554000B0431B684FF0B04243F00103136000BF4B
:10555000BD4680BC704780B400AF4FF0B0431B68BD
:105560004FF0B04223F00103136000BFBD4680BC82
:10557000704780B400AF4FF0B0431B6803F00203E4
:10558000022B01D1012300E000231846BD4680BC58
:10559000704780B400AF4FF0B0431B6803F00803BE
:1055A000082B01D1012300E000231846BD4680BC32
:1055B000704780B400AF4FF0B0431B6803F0F003B6
:1055C0001846BD4680BC704780B400AF4FF0B04372
:1055D000D3F8943003F470631846BD4680BC70471E
:1055E00080B483B000AF78604FF0B0435B6823F4C1
:1055F0007F427B681B024FF0B04113434B6000BFFA
:105600000C37BD4680BC704780B483B000AF786073
:105610004FF0B0439B6823F003024FF0B0417B682A
:1056200013438B6000BF0C37BD4680BC704780B40D
:1056300000AF4FF0B0439B6803F00C031846BD4623
:1056400080BC704780B483B000AF78604FF0B04347
:105650009B6823F0F0024FF0B0417B6813438B60EE
:1056600000BF0C37BD4680BC704780B483B000AF2C
:1056700078604FF0B043D3F8083123F00F027B6815
:105680001B094FF0B0411343C1F8083100BF0C377C
:10569000BD4680BC704780B483B000AF78604FF0E7
:1056A000B0439B6823F4E0624FF0B0417B68134342
:1056B0008B6000BF0C37BD4680BC704780B483B0A0
:1056C00000AF78604FF0B0439B6823F460524FF016
:1056D000B0417B6813438B6000BF0C37BD4680BC74
:1056E000704780B400AF4FF0B0439B6803F0F00305
:1056F0001846BD4680BC704780B400AF4FF0B04341
:10570000D3F808311B0103F0F0031846BD4680BCF6
:10571000704780B400AF4FF0B0439B6803F4E06380
:105720001846BD4680BC704780B400AF4FF0B04310
:105730009B6803F460531846BD4680BC704780B434
:1057400000AF4FF0B0431B684FF0B04243F080739E
:10575000136000BFBD4680BC704780B400AF4FF0FF
:10576000B0431B684FF0B04223F08073136000BF5A
:10577000BD4680BC704780B400AF4FF0B0431B689B
:1057800003F00073B3F1007F01D1012300E0002397
:105790001846BD4680BC704780B400AF4FF0B043A0
:1057A000DB681B0A03F07F031846BD4680BC7047C8
:1057B00080B400AF4FF0B043DB6803F0604318469D
:1057C000BD4680BC704780B400AF4FF0B043DB688B
:1057D00003F070031846BD4680BC704780B400AF2C
:1057E0004FF0B043DB6803F003031846BD4680BCAE
:1057F000704780B400AF4FF0B0439B6803F4803330
:10580000B3F5803F01D1012300E000231846BD46D7
:1058100080BC704780B400AF4FF0B043D3F808317C
:1058200003F48033B3F5803F01D1012300E000236E
:105830001846BD4680BC704780B400AF4FF0B043FF
:105840009B6803F40033B3F5003F01D1012300E06E
:1058500000231846BD4680BC704780B400AF4FF0AF
:10586000B0439B6803F48023B3F5802F01D101235B
:1058700000E000231846BD4680BC704780B588B064
:1058800000AF78607B68002B01D101238BE3FFF729
:10589000CEFEF861FFF7A2FFB8617B681B6803F0DA
:1058A0002003002B00F0C980FB69002B05D0FB69A9
:1058B0000C2B7BD1BB69012B78D1FFF75AFE034635
:1058C000002B05D07B681B6A002B01D101236AE302
:1058D0007B689A6A4FF0B0431B6803F00803002B03
:1058E00005D04FF0B0431B6803F0F00306E04FF023
:1058F000B043D3F894301B0903F0F003934222D253
:105900007B689B6A184600F051FD0346002B01D0CE
:10591000012348E34FF0B0431B684FF0B04243F01F
:10592000080313604FF0B0431B6823F0F0027B685C
:105930009B6A4FF0B04113430B607B685B6A18466B
:10594000FFF74EFE21E04FF0B0431B684FF0B0422E
:1059500043F0080313604FF0B0431B6823F0F002DC
:105960007B689B6A4FF0B04113430B607B685B6AB6
:105970001846FFF735FE7B689B6A184600F016FD57
:105980000346002B01D001230DE300F0D7FC0346B2
:10599000A14A1360A14B1B681846FCF7F3F80346B5
:1059A000FB74FB7C002B47D0FB7CFCE27B681B6A12
:1059B000002B2CD0FFF7C1FDFCF7EEF8786108E072
:1059C000FCF7EAF802467B69D31A022B01D90323BC
:1059D000E9E2FFF7CEFD0346002BF1D04FF0B043D4
:1059E0001B684FF0B04243F0080313604FF0B04320
:1059F0001B6823F0F0027B689B6A4FF0B0411343B1
:105A00000B607B685B6A1846FFF7EAFD15E0FFF75D
:105A1000A2FDFCF7C1F8786108E0FCF7BDF802468A
:105A20007B69D31A022B01D90323BCE2FFF7A1FD46
:105A30000346002BF1D100E000BF7B681B6803F038
:105A40000103002B5FD0FB69082B05D0FB690C2BF1
:105A50000DD1BB69032B0AD1FFF7DBFC0346002BFA
:105A600050D07B685B68002B4CD101239BE24FF048
:105A7000B0431B6823F480127B689B684FF0B041F1
:105A800013430B607B685B68B3F5803F02D1FFF77F
:105A9000A4FC0DE07B685B68B3F5041F04D1FFF73D
:105AA0006FFCFFF79AFC03E0FFF7A5FCFFF776FC1D
:105AB0007B685B68002B12D0FCF76EF8786108E019
:105AC000FCF76AF802467B69D31A642B01D90323D9
:105AD00069E2FFF79EFC0346002BF1D013E0FCF7D0
